{
  "contractName": "Appointment",
  "abi": [
    {
      "constant": true,
      "inputs": [
        {
          "name": "",
          "type": "uint256"
        }
      ],
      "name": "docappt",
      "outputs": [
        {
          "name": "appid",
          "type": "uint256"
        },
        {
          "name": "pid",
          "type": "uint256"
        },
        {
          "name": "pname",
          "type": "string"
        },
        {
          "name": "patientAddress",
          "type": "address"
        },
        {
          "name": "doctorAddress",
          "type": "address"
        }
      ],
      "payable": false,
      "stateMutability": "view",
      "type": "function"
    },
    {
      "constant": true,
      "inputs": [],
      "name": "viewAppointment",
      "outputs": [
        {
          "name": "",
          "type": "uint256[]"
        }
      ],
      "payable": false,
      "stateMutability": "view",
      "type": "function"
    },
    {
      "constant": false,
      "inputs": [
        {
          "name": "pid",
          "type": "uint256"
        },
        {
          "name": "pname",
          "type": "string"
        },
        {
          "name": "dadd",
          "type": "address"
        }
      ],
      "name": "addAppointment",
      "outputs": [],
      "payable": true,
      "stateMutability": "payable",
      "type": "function"
    },
    {
      "constant": true,
      "inputs": [
        {
          "name": "",
          "type": "address"
        }
      ],
      "name": "balanceOf",
      "outputs": [
        {
          "name": "",
          "type": "uint256"
        }
      ],
      "payable": false,
      "stateMutability": "view",
      "type": "function"
    },
    {
      "constant": false,
      "inputs": [
        {
          "name": "_to",
          "type": "address"
        },
        {
          "name": "_value",
          "type": "uint256"
        }
      ],
      "name": "transfer",
      "outputs": [],
      "payable": false,
      "stateMutability": "nonpayable",
      "type": "function"
    }
  ],
  "bytecode": "0x606060405260008054600160a060020a033316600160a060020a031990911617905561059f806100306000396000f300606060405263ffffffff7c010000000000000000000000000000000000000000000000000000000060003504166309e1e2a181146100685780630e088b371461012e5780632aaae54f1461019457806370a08231146101ec578063a9059cbb1461021d57600080fd5b341561007357600080fd5b61007e60043561023f565b60405185815260208101859052600160a060020a0380841660608301528216608082015260a0604082018181528554600260001961010060018416150201909116049183018290529060c08301908690801561011b5780601f106100f05761010080835404028352916020019161011b565b820191906000526020600020905b8154815290600101906020018083116100fe57829003601f168201915b5050965050505050505060405180910390f35b341561013957600080fd5b610141610276565b60405160208082528190810183818151815260200191508051906020019060200280838360005b83811015610180578082015183820152602001610168565b505050509050019250505060405180910390f35b6101ea600480359060446024803590810190830135806020601f8201819004810201604051908101604052818152929190602084018383808284375094965050509235600160a060020a0316925061039d915050565b005b34156101f757600080fd5b61020b600160a060020a0360043516610480565b60405190815260200160405180910390f35b341561022857600080fd5b6101ea600160a060020a0360043516602435610492565b600160208190526000918252604090912080549181015460038201546004830154919260020191600160a060020a03918216911685565b61027e6104c6565b6102866104c6565b6000806102916104c6565b6000600354600014156102c55760006040518059106102ad5750595b90808252806020026020018201604052509550610395565b6003546040518059106102d55750595b9080825280602002602001820160405250945060009350600192505b600354831161032f5760008381526001602052604090205485858151811061031557fe5b6020908102909101015260019384019392909201916102f1565b8360405180591061033d5750595b90808252806020026020018201604052509150600090505b838110156103915784818151811061036957fe5b9060200190602002015182828151811061037f57fe5b60209081029091010152600101610355565b8195505b505050505090565b60038054600101905560a060405190810160409081526003548083526020808401879052828401869052600160a060020a033381166060860152851660808501526000918252600190522081518155602082015181600101556040820151816002019080516104109291602001906104d8565b50606082015160038201805473ffffffffffffffffffffffffffffffffffffffff1916600160a060020a03929092169190911790556080820151600491909101805473ffffffffffffffffffffffffffffffffffffffff1916600160a060020a0390921691909117905550505050565b60026020526000908152604090205481565b600160a060020a03338116600090815260026020526040808220805485900390559390911681529190912080549091019055565b60206040519081016040526000815290565b828054600181600116156101000203166002900490600052602060002090601f016020900481019282601f1061051957805160ff1916838001178555610546565b82800160010185558215610546579182015b8281111561054657825182559160200191906001019061052b565b50610552929150610556565b5090565b61057091905b80821115610552576000815560010161055c565b905600a165627a7a723058200368be16572b4688ac8cdd84d952578778fa0f81db38d80eb8e9169f43a665640029",
  "source": "pragma solidity ^0.4.11;\r\nimport \"./owned.sol\";\r\nimport \"./NanoToken.sol\";\r\n\r\n\r\n\r\ncontract Appointment is owned {\r\n\r\n  struct Appointments {\r\n\r\n    uint appid;\r\n    uint pid;\r\n    string pname;\r\n    address patientAddress;\r\n    address doctorAddress;\r\n\r\n  }\r\n  mapping (uint => Appointments) public docappt;\r\n  mapping (address => uint256) public balanceOf;\r\n  uint AppointmentID;\r\n\r\n\r\n  function addAppointment(uint pid, string pname, address dadd)  payable public {\r\n    AppointmentID++;\r\n    docappt[AppointmentID] = Appointments(AppointmentID, pid, pname, msg.sender, dadd);\r\n\r\n  }\r\n\r\n  function viewAppointment() public constant returns (uint[]) {\r\n\r\n    if (AppointmentID == 0) {\r\n    return new uint[](0);\r\n    }\r\n    uint[] memory appttId = new uint[](AppointmentID);\r\n\r\n    uint addid=0;\r\n    for (uint i = 1; i <= AppointmentID; i++) {\r\n      appttId[addid] = docappt[i].appid;\r\n      addid++;\r\n    }\r\n\r\n    uint[] memory apptcount = new uint[](addid);\r\n    for (uint j = 0; j < addid; j++) {\r\n      apptcount[j] = appttId[j];\r\n      }\r\n    return (apptcount);\r\n\r\n\r\n  }\r\n  function transfer(address _to, uint256 _value) {\r\n//          require(balanceOf[msg.sender] >= _value);\r\n  // Check if the sender has enough\r\n  //        require(balanceOf[_to] + _value >= balanceOf[_to]);\r\n  // Check for overflows\r\n          balanceOf[msg.sender] -= _value;\r\n  // Subtract from the sender\r\n          balanceOf[_to] += _value;\r\n  // Add the same to the recipient\r\n      }\r\n}\r\n",
  "sourcePath": "F:\\nanohealth\\contracts\\Appointment.sol",
  "schemaVersion": "1.0.0",
  "updatedAt": "2018-03-11T07:32:47.344Z"
}