{
  "contractName": "NanoDoctor",
  "abi": [
    {
      "constant": true,
      "inputs": [
        {
          "name": "",
          "type": "uint256"
        }
      ],
      "name": "doctorsAccount",
      "outputs": [
        {
          "name": "",
          "type": "address"
        }
      ],
      "payable": false,
      "stateMutability": "view",
      "type": "function"
    },
    {
      "constant": true,
      "inputs": [
        {
          "name": "",
          "type": "uint256"
        }
      ],
      "name": "doctorss",
      "outputs": [
        {
          "name": "id",
          "type": "uint256"
        },
        {
          "name": "dname",
          "type": "string"
        },
        {
          "name": "age",
          "type": "uint256"
        },
        {
          "name": "specialist",
          "type": "string"
        },
        {
          "name": "docaddress",
          "type": "address"
        }
      ],
      "payable": false,
      "stateMutability": "view",
      "type": "function"
    },
    {
      "constant": true,
      "inputs": [],
      "name": "getDoctors",
      "outputs": [
        {
          "name": "",
          "type": "uint256[]"
        }
      ],
      "payable": false,
      "stateMutability": "view",
      "type": "function"
    },
    {
      "constant": false,
      "inputs": [
        {
          "name": "_name",
          "type": "string"
        },
        {
          "name": "_age",
          "type": "uint256"
        },
        {
          "name": "_spec",
          "type": "string"
        }
      ],
      "name": "addDoctor",
      "outputs": [],
      "payable": true,
      "stateMutability": "payable",
      "type": "function"
    }
  ],
  "bytecode": "0x6060604052341561000f57600080fd5b6105e28061001e6000396000f300606060405263ffffffff7c010000000000000000000000000000000000000000000000000000000060003504166314460c10811461005d578063a6bcf2af1461008f578063b13d5d94146101c7578063ed59fead1461022d57600080fd5b341561006857600080fd5b6100736004356102c0565b604051600160a060020a03909116815260200160405180910390f35b341561009a57600080fd5b6100a56004356102e8565b60405185815260408101849052600160a060020a038216608082015260a06020820181815286546002600019610100600184161502019091160491830182905290606083019060c08401908890801561013f5780601f106101145761010080835404028352916020019161013f565b820191906000526020600020905b81548152906001019060200180831161012257829003601f168201915b50508381038252855460026000196101006001841615020190911604808252602090910190869080156101b35780601f10610188576101008083540402835291602001916101b3565b820191906000526020600020905b81548152906001019060200180831161019657829003601f168201915b505097505050505050505060405180910390f35b34156101d257600080fd5b6101da61031b565b60405160208082528190810183818151815260200191508051906020019060200280838360005b83811015610219578082015183820152602001610201565b505050509050019250505060405180910390f35b6102be60046024813581810190830135806020601f8201819004810201604051908101604052818152929190602084018383808284378201915050505050509190803590602001909190803590602001908201803590602001908080601f01602080910402602001604051908101604052818152929190602084018383808284375094965061044295505050505050565b005b60028054829081106102ce57fe5b600091825260209091200154600160a060020a0316905081565b600060208190529081526040902080546002820154600483015491926001810192600390910190600160a060020a031685565b610323610509565b61032b610509565b600080610336610509565b60006001546000141561036a5760006040518059106103525750595b9080825280602002602001820160405250955061043a565b60015460405180591061037a5750595b9080825280602002602001820160405250945060009350600192505b60015483116103d4576000838152602081905260409020548585815181106103ba57fe5b602090810290910101526001938401939290920191610396565b836040518059106103e25750595b90808252806020026020018201604052509150600090505b838110156104365784818151811061040e57fe5b9060200190602002015182828151811061042457fe5b602090810290910101526001016103fa565b8195505b505050505090565b600180548101905560a06040519081016040908152600154808352602080840187905282840186905260608401859052600160a060020a0333166080850152600091825281905220815181556020820151816001019080516104a892916020019061051b565b50604082015181600201556060820151816003019080516104cd92916020019061051b565b506080820151600491909101805473ffffffffffffffffffffffffffffffffffffffff1916600160a060020a0390921691909117905550505050565b60206040519081016040526000815290565b828054600181600116156101000203166002900490600052602060002090601f016020900481019282601f1061055c57805160ff1916838001178555610589565b82800160010185558215610589579182015b8281111561058957825182559160200191906001019061056e565b50610595929150610599565b5090565b6105b391905b80821115610595576000815560010161059f565b905600a165627a7a72305820475f82aab785a7e35ad3c63b40f3e4cbbf3adeb7854b93f77d3e9b50b89e92760029",
  "source": "pragma solidity ^0.4.11;\r\n\r\n\r\ncontract NanoDoctor {\r\n\r\n\r\n    // Patient Details\r\n    struct Doctors {\r\n        uint id;\r\n        string dname;\r\n        uint age;\r\n        string specialist;\r\n        address docaddress;\r\n\r\n    }\r\n    //Mapping address tp Patients\r\n\r\n    mapping (uint => Doctors) public doctorss;\r\n    uint doctorID;\r\n\r\n    //Collection of address\r\n\r\n    address[] public doctorsAccount;\r\n\r\n\r\n    //Insert Doctor Details\r\n    function addDoctor(string _name, uint _age, string _spec) payable public  {\r\n\r\n      //adding Doctor\r\n      doctorID++;\r\n      doctorss[doctorID] = Doctors(doctorID, _name, _age, _spec, msg.sender);\r\n\r\n      /**  var doctoracctdetails = doctorss[_daddress];\r\n        doctoracctdetails.dname = _dname;\r\n        doctoracctdetails.age = _age;\r\n        doctoracctdetails.specialist = _spec;\r\n        doctorsAccount.push(_daddress)-1; */\r\n\r\n}\r\n\r\n    function getDoctors() public constant returns (uint[]) {\r\n        // Get doctorsAccountdetails\r\n      //  return doctorsAccount;\r\n\r\n            if (doctorID == 0) {\r\n            return new uint[](0);\r\n            }\r\n            uint[] memory docId = new uint[](doctorID);\r\n\r\n            uint addid=0;\r\n            for (uint i = 1; i <= doctorID; i++) {\r\n              docId[addid] = doctorss[i].id;\r\n              addid++;\r\n            }\r\n\r\n            uint[] memory doctorcount = new uint[](addid);\r\n            for (uint j = 0; j < addid; j++) {\r\n              doctorcount[j] = docId[j];\r\n              }\r\n            return (doctorcount);\r\n\r\n\r\n    }\r\n\r\n    /**function getDoctors(address ins) view public returns (string, uint, string) {\r\n          // Get Specific Doctor details\r\n\r\n        return (doctorss[ins].dname, doctorss[ins].age, doctorss[ins].specialist);\r\n\r\n    }\r\n\r\n    function getdoctorsCount() view public returns (uint) {\r\n          // Get Doctor Count\r\n\r\n        return doctorsAccount.length;\r\n\r\n    }*/\r\n\r\n\r\n}\r\n",
  "sourcePath": "F:\\nanohealth\\contracts\\NanoDoctor.sol",
  "schemaVersion": "1.0.0",
  "updatedAt": "2018-03-18T05:33:25.423Z"
}