{
  "contractName": "NanoPatient",
  "abi": [
    {
      "constant": false,
      "inputs": [
        {
          "name": "_name",
          "type": "string"
        },
        {
          "name": "_age",
          "type": "uint256"
        },
        {
          "name": "_weight",
          "type": "uint256"
        },
        {
          "name": "_height",
          "type": "uint256"
        }
      ],
      "name": "addPatient",
      "outputs": [],
      "payable": true,
      "stateMutability": "payable",
      "type": "function"
    },
    {
      "constant": true,
      "inputs": [],
      "name": "getPatients",
      "outputs": [
        {
          "name": "",
          "type": "uint256[]"
        }
      ],
      "payable": false,
      "stateMutability": "view",
      "type": "function"
    },
    {
      "constant": true,
      "inputs": [
        {
          "name": "",
          "type": "uint256"
        }
      ],
      "name": "patientsAccount",
      "outputs": [
        {
          "name": "",
          "type": "address"
        }
      ],
      "payable": false,
      "stateMutability": "view",
      "type": "function"
    },
    {
      "constant": true,
      "inputs": [
        {
          "name": "",
          "type": "uint256"
        }
      ],
      "name": "patientss",
      "outputs": [
        {
          "name": "id",
          "type": "uint256"
        },
        {
          "name": "name",
          "type": "string"
        },
        {
          "name": "age",
          "type": "uint256"
        },
        {
          "name": "weight",
          "type": "uint256"
        },
        {
          "name": "height",
          "type": "uint256"
        },
        {
          "name": "padd",
          "type": "address"
        }
      ],
      "payable": false,
      "stateMutability": "view",
      "type": "function"
    }
  ],
  "bytecode": "0x606060405260008054600160a060020a033316600160a060020a0319909116179055610548806100306000396000f300606060405263ffffffff7c010000000000000000000000000000000000000000000000000000000060003504166308a9ffb7811461005d57806312ad1c37146100b25780631abd069614610118578063ea3bfce11461014a57600080fd5b6100b060046024813581810190830135806020601f820181900481020160405190810160405281815292919060208401838380828437509496505084359460208101359450604001359250610217915050565b005b34156100bd57600080fd5b6100c56102e1565b60405160208082528190810183818151815260200191508051906020019060200280838360005b838110156101045780820151838201526020016100ec565b505050509050019250505060405180910390f35b341561012357600080fd5b61012e600435610408565b604051600160a060020a03909116815260200160405180910390f35b341561015557600080fd5b610160600435610430565b604051868152604081018590526060810184905260808101839052600160a060020a03821660a082015260c0602082018181528754600260001961010060018416150201909116049183018290529060e0830190889080156102035780601f106101d857610100808354040283529160200191610203565b820191906000526020600020905b8154815290600101906020018083116101e657829003601f168201915b505097505050505050505060405180910390f35b60028054600101905560c0604051908101604090815260025480835260208084018890528284018790526060840186905260808401859052600160a060020a03331660a0850152600091825260019052208151815560208201518160010190805161028692916020019061046f565b5060408201518160020155606082015181600301556080820151816004015560a0820151600591909101805473ffffffffffffffffffffffffffffffffffffffff1916600160a060020a039092169190911790555050505050565b6102e96104ed565b6102f16104ed565b6000806102fc6104ed565b6000600254600014156103305760006040518059106103185750595b90808252806020026020018201604052509550610400565b6002546040518059106103405750595b9080825280602002602001820160405250945060009350600192505b600254831161039a5760008381526001602052604090205485858151811061038057fe5b60209081029091010152600193840193929092019161035c565b836040518059106103a85750595b90808252806020026020018201604052509150600090505b838110156103fc578481815181106103d457fe5b906020019060200201518282815181106103ea57fe5b602090810290910101526001016103c0565b8195505b505050505090565b600380548290811061041657fe5b600091825260209091200154600160a060020a0316905081565b600160208190526000918252604090912080546002820154600383015460048401546005850154939594909401939192909190600160a060020a031686565b828054600181600116156101000203166002900490600052602060002090601f016020900481019282601f106104b057805160ff19168380011785556104dd565b828001600101855582156104dd579182015b828111156104dd5782518255916020019190600101906104c2565b506104e99291506104ff565b5090565b60206040519081016040526000815290565b61051991905b808211156104e95760008155600101610505565b905600a165627a7a72305820db7488c7e636518ffdb55deb8a8054a4aa371adaaf8d5a37e27e4d9a37a106450029",
  "source": "pragma solidity ^0.4.11;\r\nimport \"./owned.sol\";\r\nimport \"./NanoToken.sol\";\r\n\r\n\r\n\r\ncontract NanoPatient is owned  {\r\n\r\n\r\n    // Patient Details\r\n    struct Patients {\r\n        uint id;\r\n        string name;\r\n        uint age;\r\n        uint weight;\r\n        uint height;\r\n        address padd;\r\n\r\n    }\r\n    //Mapping address tp Patients\r\n\r\n    mapping (uint => Patients) public patientss;\r\n    uint patientID;\r\n\r\n    //Collection of address\r\n\r\n    address[] public patientsAccount;\r\n\r\n\r\n    //Insert Patient Details\r\n    //addPatient(name,age,weight,height,account)\r\n    function addPatient(string _name, uint _age, uint _weight, uint _height) payable public  {\r\n\r\n\r\n\r\n        patientID++;\r\n        patientss[patientID] = Patients(patientID, _name, _age, _weight, _height, msg.sender);\r\n\r\n        /**patientss[_paddress].name = _name;\r\n        patientss[_paddress].age = _age;\r\n        patientss[_paddress].weight = _weight;\r\n        patientss[_paddress].height = _height;\r\n        patientsAccount.push(_paddress)-1;**/\r\n\r\n    }\r\n\r\n    function getPatients()  public constant returns (uint[]) {\r\n\r\n\r\n          if (patientID == 0) {\r\n          return new uint[](0);\r\n          }\r\n          uint[] memory patId = new uint[](patientID);\r\n\r\n          uint addid=0;\r\n          for (uint i = 1; i <= patientID; i++) {\r\n            patId[addid] = patientss[i].id;\r\n            addid++;\r\n          }\r\n\r\n          uint[] memory patientcount = new uint[](addid);\r\n          for (uint j = 0; j < addid; j++) {\r\n            patientcount[j] = patId[j];\r\n            }\r\n          return (patientcount);\r\n\r\n    }\r\n\r\n\r\n  /**  function getPatient(address ins) view public returns (string, uint, uint, uint) {\r\n          // Get Specific Patient details\r\n\r\n        return (patientss[ins].name, patientss[ins].age, patientss[ins].weight, patientss[ins].height);\r\n\r\n    }\r\n\r\n    function getpatientCount() view public returns (uint) {\r\n          // Get Patients Count\r\n\r\n        return patientsAccount.length;\r\n\r\n    }*/\r\n\r\n\r\n}\r\n",
  "sourcePath": "F:\\nanohealth\\contracts\\NanoPatient.sol",
  "schemaVersion": "1.0.0",
  "updatedAt": "2018-03-18T05:33:25.499Z"
}