{
  "contractName": "ServiceProvider",
  "abi": [
    {
      "constant": true,
      "inputs": [],
      "name": "getPaydetails",
      "outputs": [
        {
          "name": "",
          "type": "uint256[]"
        }
      ],
      "payable": false,
      "stateMutability": "view",
      "type": "function"
    },
    {
      "constant": true,
      "inputs": [
        {
          "name": "",
          "type": "uint256"
        }
      ],
      "name": "pays",
      "outputs": [
        {
          "name": "id",
          "type": "uint256"
        },
        {
          "name": "docadd",
          "type": "address"
        },
        {
          "name": "amount",
          "type": "uint256"
        },
        {
          "name": "status",
          "type": "string"
        }
      ],
      "payable": false,
      "stateMutability": "view",
      "type": "function"
    },
    {
      "constant": false,
      "inputs": [
        {
          "name": "docadd",
          "type": "address"
        },
        {
          "name": "amount",
          "type": "uint256"
        },
        {
          "name": "status",
          "type": "string"
        }
      ],
      "name": "addPaydetails",
      "outputs": [],
      "payable": true,
      "stateMutability": "payable",
      "type": "function"
    }
  ],
  "bytecode": "0x6060604052341561000f57600080fd5b6104e98061001e6000396000f300606060405263ffffffff7c010000000000000000000000000000000000000000000000000000000060003504166307adb17f8114610052578063acaf5b38146100b8578063fc9ef34b1461018257600080fd5b341561005d57600080fd5b6100656101eb565b60405160208082528190810183818151815260200191508051906020019060200280838360005b838110156100a457808201518382015260200161008c565b505050509050019250505060405180910390f35b34156100c357600080fd5b6100ce600435610312565b60405184815273ffffffffffffffffffffffffffffffffffffffff84166020820152604081018390526080606082018181528354600260001961010060018416150201909116049183018290529060a0830190849080156101705780601f1061014557610100808354040283529160200191610170565b820191906000526020600020905b81548152906001019060200180831161015357829003601f168201915b50509550505050505060405180910390f35b6101e96004803573ffffffffffffffffffffffffffffffffffffffff169060248035919060649060443590810190830135806020601f8201819004810201604051908101604052818152929190602084018383808284375094965061034e95505050505050565b005b6101f3610410565b6101fb610410565b600080610206610410565b60006001546000141561023a5760006040518059106102225750595b9080825280602002602001820160405250955061030a565b60015460405180591061024a5750595b9080825280602002602001820160405250945060009350600192505b60015483116102a45760008381526020819052604090205485858151811061028a57fe5b602090810290910101526001938401939290920191610266565b836040518059106102b25750595b90808252806020026020018201604052509150600090505b83811015610306578481815181106102de57fe5b906020019060200201518282815181106102f457fe5b602090810290910101526001016102ca565b8195505b505050505090565b6000602081905290815260409020805460018201546002830154919273ffffffffffffffffffffffffffffffffffffffff909116919060030184565b60018054810190556080604051908101604090815260015480835273ffffffffffffffffffffffffffffffffffffffff86166020808501919091528284018690526060840185905260009182528190522081518155602082015160018201805473ffffffffffffffffffffffffffffffffffffffff191673ffffffffffffffffffffffffffffffffffffffff9290921691909117905560408201518160020155606082015181600301908051610408929160200190610422565b505050505050565b60206040519081016040526000815290565b828054600181600116156101000203166002900490600052602060002090601f016020900481019282601f1061046357805160ff1916838001178555610490565b82800160010185558215610490579182015b82811115610490578251825591602001919060010190610475565b5061049c9291506104a0565b5090565b6104ba91905b8082111561049c57600081556001016104a6565b905600a165627a7a72305820691bf5834624708f37ee8f56aa5a9c5e9b9211398c897ee70f1eefebd43c4f540029",
  "source": "pragma solidity ^0.4.11;\r\n\r\n\r\n\r\n  contract ServiceProvider {\r\n\r\n    struct spNano{\r\n\r\n      uint id;\r\n      address docadd;\r\n      uint amount;\r\n      string status;\r\n\r\n    }\r\n    mapping (uint => spNano) public pays;\r\n    uint payID;\r\n    function addPaydetails(address docadd, uint amount, string status) payable public  {\r\n\r\n        payID++;\r\n        pays[payID] = spNano(payID, docadd, amount, status);\r\n\r\n    }\r\n\r\n    function getPaydetails()  public constant returns (uint[]) {\r\n\r\n\r\n          if (payID == 0) {\r\n          return new uint[](0);\r\n          }\r\n          uint[] memory paysids = new uint[](payID);\r\n\r\n          uint addid=0;\r\n          for (uint i = 1; i <= payID; i++) {\r\n            paysids[addid] = pays[i].id;\r\n            addid++;\r\n          }\r\n\r\n          uint[] memory paycount = new uint[](addid);\r\n          for (uint j = 0; j < addid; j++) {\r\n            paycount[j] = paysids[j];\r\n            }\r\n          return (paycount);\r\n\r\n    }\r\n\r\n\r\n\r\n\r\n}\r\n",
  "sourcePath": "F:\\nanohealth\\contracts\\ServiceProvider.sol",
  "schemaVersion": "1.0.0",
  "updatedAt": "2018-03-18T05:33:25.495Z"
}